{"abi":[{"type":"constructor","inputs":[{"name":"_complianceRegistry","type":"address","internalType":"address"},{"name":"_tokenImplementation","type":"address","internalType":"address"}],"stateMutability":"nonpayable"},{"type":"function","name":"DEFAULT_ADMIN_ROLE","inputs":[],"outputs":[{"name":"","type":"bytes32","internalType":"bytes32"}],"stateMutability":"view"},{"type":"function","name":"complianceRegistry","inputs":[],"outputs":[{"name":"","type":"address","internalType":"address"}],"stateMutability":"view"},{"type":"function","name":"deployAsset","inputs":[{"name":"name","type":"string","internalType":"string"},{"name":"symbol","type":"string","internalType":"string"},{"name":"complianceRuleId","type":"bytes32","internalType":"bytes32"},{"name":"initialSupply","type":"uint256","internalType":"uint256"}],"outputs":[{"name":"","type":"address","internalType":"address"}],"stateMutability":"nonpayable"},{"type":"function","name":"getRoleAdmin","inputs":[{"name":"role","type":"bytes32","internalType":"bytes32"}],"outputs":[{"name":"","type":"bytes32","internalType":"bytes32"}],"stateMutability":"view"},{"type":"function","name":"grantRole","inputs":[{"name":"role","type":"bytes32","internalType":"bytes32"},{"name":"account","type":"address","internalType":"address"}],"outputs":[],"stateMutability":"nonpayable"},{"type":"function","name":"hasRole","inputs":[{"name":"role","type":"bytes32","internalType":"bytes32"},{"name":"account","type":"address","internalType":"address"}],"outputs":[{"name":"","type":"bool","internalType":"bool"}],"stateMutability":"view"},{"type":"function","name":"renounceRole","inputs":[{"name":"role","type":"bytes32","internalType":"bytes32"},{"name":"callerConfirmation","type":"address","internalType":"address"}],"outputs":[],"stateMutability":"nonpayable"},{"type":"function","name":"revokeRole","inputs":[{"name":"role","type":"bytes32","internalType":"bytes32"},{"name":"account","type":"address","internalType":"address"}],"outputs":[],"stateMutability":"nonpayable"},{"type":"function","name":"supportsInterface","inputs":[{"name":"interfaceId","type":"bytes4","internalType":"bytes4"}],"outputs":[{"name":"","type":"bool","internalType":"bool"}],"stateMutability":"view"},{"type":"function","name":"tokenImplementation","inputs":[],"outputs":[{"name":"","type":"address","internalType":"address"}],"stateMutability":"view"},{"type":"function","name":"updateImplementation","inputs":[{"name":"_newImplementation","type":"address","internalType":"address"}],"outputs":[],"stateMutability":"nonpayable"},{"type":"event","name":"AssetDeployed","inputs":[{"name":"assetAddress","type":"address","indexed":true,"internalType":"address"},{"name":"name","type":"string","indexed":false,"internalType":"string"},{"name":"symbol","type":"string","indexed":false,"internalType":"string"},{"name":"deployer","type":"address","indexed":true,"internalType":"address"}],"anonymous":false},{"type":"event","name":"ImplementationUpdated","inputs":[{"name":"newImplementation","type":"address","indexed":true,"internalType":"address"}],"anonymous":false},{"type":"event","name":"RoleAdminChanged","inputs":[{"name":"role","type":"bytes32","indexed":true,"internalType":"bytes32"},{"name":"previousAdminRole","type":"bytes32","indexed":true,"internalType":"bytes32"},{"name":"newAdminRole","type":"bytes32","indexed":true,"internalType":"bytes32"}],"anonymous":false},{"type":"event","name":"RoleGranted","inputs":[{"name":"role","type":"bytes32","indexed":true,"internalType":"bytes32"},{"name":"account","type":"address","indexed":true,"internalType":"address"},{"name":"sender","type":"address","indexed":true,"internalType":"address"}],"anonymous":false},{"type":"event","name":"RoleRevoked","inputs":[{"name":"role","type":"bytes32","indexed":true,"internalType":"bytes32"},{"name":"account","type":"address","indexed":true,"internalType":"address"},{"name":"sender","type":"address","indexed":true,"internalType":"address"}],"anonymous":false},{"type":"error","name":"AccessControlBadConfirmation","inputs":[]},{"type":"error","name":"AccessControlUnauthorizedAccount","inputs":[{"name":"account","type":"address","internalType":"address"},{"name":"neededRole","type":"bytes32","internalType":"bytes32"}]},{"type":"error","name":"FailedDeployment","inputs":[]},{"type":"error","name":"InsufficientBalance","inputs":[{"name":"balance","type":"uint256","internalType":"uint256"},{"name":"needed","type":"uint256","internalType":"uint256"}]}],"bytecode":{"object":"0x608060405234801561000f575f5ffd5b5060405161136438038061136483398181016040528101906100319190610288565b8160015f6101000a81548173ffffffffffffffffffffffffffffffffffffffff021916908373ffffffffffffffffffffffffffffffffffffffff1602179055508060025f6101000a81548173ffffffffffffffffffffffffffffffffffffffff021916908373ffffffffffffffffffffffffffffffffffffffff1602179055506100c35f5f1b336100cb60201b60201c565b5050506102c6565b5f6100dc83836101c060201b60201c565b6101b65760015f5f8581526020019081526020015f205f015f8473ffffffffffffffffffffffffffffffffffffffff1673ffffffffffffffffffffffffffffffffffffffff1681526020019081526020015f205f6101000a81548160ff02191690831515021790555061015361022360201b60201c565b73ffffffffffffffffffffffffffffffffffffffff168273ffffffffffffffffffffffffffffffffffffffff16847f2f8788117e7eff1d82e926ec794901d17c78024a50270940304540a733656f0d60405160405180910390a4600190506101ba565b5f90505b92915050565b5f5f5f8481526020019081526020015f205f015f8373ffffffffffffffffffffffffffffffffffffffff1673ffffffffffffffffffffffffffffffffffffffff1681526020019081526020015f205f9054906101000a900460ff16905092915050565b5f33905090565b5f5ffd5b5f73ffffffffffffffffffffffffffffffffffffffff82169050919050565b5f6102578261022e565b9050919050565b6102678161024d565b8114610271575f5ffd5b50565b5f815190506102828161025e565b92915050565b5f5f6040838503121561029e5761029d61022a565b5b5f6102ab85828601610274565b92505060206102bc85828601610274565b9150509250929050565b611091806102d35f395ff3fe608060405234801561000f575f5ffd5b50600436106100a7575f3560e01c806336568abe1161006f57806336568abe1461016157806391d148541461017d578063a217fddf146101ad578063c45411c3146101cb578063cac89c5c146101fb578063d547741f14610219576100a7565b806301ffc9a7146100ab578063025b22bc146100db578063248a9ca3146100f75780632f2ff15d146101275780632f3a3d5d14610143575b5f5ffd5b6100c560048036038101906100c09190610aa2565b610235565b6040516100d29190610ae7565b60405180910390f35b6100f560048036038101906100f09190610b5a565b6102ae565b005b610111600480360381019061010c9190610bb8565b610341565b60405161011e9190610bf2565b60405180910390f35b610141600480360381019061013c9190610c0b565b61035d565b005b61014b61037f565b6040516101589190610c58565b60405180910390f35b61017b60048036038101906101769190610c0b565b6103a4565b005b61019760048036038101906101929190610c0b565b61041f565b6040516101a49190610ae7565b60405180910390f35b6101b5610482565b6040516101c29190610bf2565b60405180910390f35b6101e560048036038101906101e09190610de0565b610488565b6040516101f29190610c58565b60405180910390f35b610203610647565b6040516102109190610c58565b60405180910390f35b610233600480360381019061022e9190610c0b565b61066c565b005b5f7f7965db0b000000000000000000000000000000000000000000000000000000007bffffffffffffffffffffffffffffffffffffffffffffffffffffffff1916827bffffffffffffffffffffffffffffffffffffffffffffffffffffffff191614806102a757506102a68261068e565b5b9050919050565b5f5f1b6102ba816106f7565b8160025f6101000a81548173ffffffffffffffffffffffffffffffffffffffff021916908373ffffffffffffffffffffffffffffffffffffffff1602179055508173ffffffffffffffffffffffffffffffffffffffff167f310ba5f1d2ed074b51e2eccd052a47ae9ab7c6b800d1fca3db3999d6a592ca0360405160405180910390a25050565b5f5f5f8381526020019081526020015f20600101549050919050565b61036682610341565b61036f816106f7565b610379838361070b565b50505050565b60025f9054906101000a900473ffffffffffffffffffffffffffffffffffffffff1681565b6103ac6107f4565b73ffffffffffffffffffffffffffffffffffffffff168173ffffffffffffffffffffffffffffffffffffffff1614610410576040517f6697b23200000000000000000000000000000000000000000000000000000000815260040160405180910390fd5b61041a82826107fb565b505050565b5f5f5f8481526020019081526020015f205f015f8373ffffffffffffffffffffffffffffffffffffffff1673ffffffffffffffffffffffffffffffffffffffff1681526020019081526020015f205f9054906101000a900460ff16905092915050565b5f5f1b81565b5f5f73ffffffffffffffffffffffffffffffffffffffff1660025f9054906101000a900473ffffffffffffffffffffffffffffffffffffffff1673ffffffffffffffffffffffffffffffffffffffff1603610518576040517f08c379a000000000000000000000000000000000000000000000000000000000815260040161050f90610efc565b60405180910390fd5b5f61054360025f9054906101000a900473ffffffffffffffffffffffffffffffffffffffff166108e4565b90508073ffffffffffffffffffffffffffffffffffffffff166343561af6878760015f9054906101000a900473ffffffffffffffffffffffffffffffffffffffff1688336040518663ffffffff1660e01b81526004016105a7959493929190610f6a565b5f604051808303815f87803b1580156105be575f5ffd5b505af11580156105d0573d5f5f3e3d5ffd5b505050503373ffffffffffffffffffffffffffffffffffffffff168173ffffffffffffffffffffffffffffffffffffffff167f58fd37815f2cc839325c10c03805ead8f908131f4369ffc13cde3c21a221ff9b8888604051610633929190610fc9565b60405180910390a380915050949350505050565b60015f9054906101000a900473ffffffffffffffffffffffffffffffffffffffff1681565b61067582610341565b61067e816106f7565b61068883836107fb565b50505050565b5f7f01ffc9a7000000000000000000000000000000000000000000000000000000007bffffffffffffffffffffffffffffffffffffffffffffffffffffffff1916827bffffffffffffffffffffffffffffffffffffffffffffffffffffffff1916149050919050565b610708816107036107f4565b6108f6565b50565b5f610716838361041f565b6107ea5760015f5f8581526020019081526020015f205f015f8473ffffffffffffffffffffffffffffffffffffffff1673ffffffffffffffffffffffffffffffffffffffff1681526020019081526020015f205f6101000a81548160ff0219169083151502179055506107876107f4565b73ffffffffffffffffffffffffffffffffffffffff168273ffffffffffffffffffffffffffffffffffffffff16847f2f8788117e7eff1d82e926ec794901d17c78024a50270940304540a733656f0d60405160405180910390a4600190506107ee565b5f90505b92915050565b5f33905090565b5f610806838361041f565b156108da575f5f5f8581526020019081526020015f205f015f8473ffffffffffffffffffffffffffffffffffffffff1673ffffffffffffffffffffffffffffffffffffffff1681526020019081526020015f205f6101000a81548160ff0219169083151502179055506108776107f4565b73ffffffffffffffffffffffffffffffffffffffff168273ffffffffffffffffffffffffffffffffffffffff16847ff6391f5c32d9c69d2a47ea670b442974b53935d1edc7fd64eb21e047a839171b60405160405180910390a4600190506108de565b5f90505b92915050565b5f6108ef825f610947565b9050919050565b610900828261041f565b6109435780826040517fe2517d3f00000000000000000000000000000000000000000000000000000000815260040161093a929190610ffe565b60405180910390fd5b5050565b5f8147101561098f5747826040517fcf479181000000000000000000000000000000000000000000000000000000008152600401610986929190611034565b60405180910390fd5b763d602d80600a3d3981f3363d3d373d3d3d363d730000008360601b60e81c175f526e5af43d82803e903d91602b57fd5bf38360781b176020526037600983f090505f73ffffffffffffffffffffffffffffffffffffffff168173ffffffffffffffffffffffffffffffffffffffff1603610a36576040517fb06ebf3d00000000000000000000000000000000000000000000000000000000815260040160405180910390fd5b92915050565b5f604051905090565b5f5ffd5b5f5ffd5b5f7fffffffff0000000000000000000000000000000000000000000000000000000082169050919050565b610a8181610a4d565b8114610a8b575f5ffd5b50565b5f81359050610a9c81610a78565b92915050565b5f60208284031215610ab757610ab6610a45565b5b5f610ac484828501610a8e565b91505092915050565b5f8115159050919050565b610ae181610acd565b82525050565b5f602082019050610afa5f830184610ad8565b92915050565b5f73ffffffffffffffffffffffffffffffffffffffff82169050919050565b5f610b2982610b00565b9050919050565b610b3981610b1f565b8114610b43575f5ffd5b50565b5f81359050610b5481610b30565b92915050565b5f60208284031215610b6f57610b6e610a45565b5b5f610b7c84828501610b46565b91505092915050565b5f819050919050565b610b9781610b85565b8114610ba1575f5ffd5b50565b5f81359050610bb281610b8e565b92915050565b5f60208284031215610bcd57610bcc610a45565b5b5f610bda84828501610ba4565b91505092915050565b610bec81610b85565b82525050565b5f602082019050610c055f830184610be3565b92915050565b5f5f60408385031215610c2157610c20610a45565b5b5f610c2e85828601610ba4565b9250506020610c3f85828601610b46565b9150509250929050565b610c5281610b1f565b82525050565b5f602082019050610c6b5f830184610c49565b92915050565b5f5ffd5b5f5ffd5b5f601f19601f8301169050919050565b7f4e487b71000000000000000000000000000000000000000000000000000000005f52604160045260245ffd5b610cbf82610c79565b810181811067ffffffffffffffff82111715610cde57610cdd610c89565b5b80604052505050565b5f610cf0610a3c565b9050610cfc8282610cb6565b919050565b5f67ffffffffffffffff821115610d1b57610d1a610c89565b5b610d2482610c79565b9050602081019050919050565b828183375f83830152505050565b5f610d51610d4c84610d01565b610ce7565b905082815260208101848484011115610d6d57610d6c610c75565b5b610d78848285610d31565b509392505050565b5f82601f830112610d9457610d93610c71565b5b8135610da4848260208601610d3f565b91505092915050565b5f819050919050565b610dbf81610dad565b8114610dc9575f5ffd5b50565b5f81359050610dda81610db6565b92915050565b5f5f5f5f60808587031215610df857610df7610a45565b5b5f85013567ffffffffffffffff811115610e1557610e14610a49565b5b610e2187828801610d80565b945050602085013567ffffffffffffffff811115610e4257610e41610a49565b5b610e4e87828801610d80565b9350506040610e5f87828801610ba4565b9250506060610e7087828801610dcc565b91505092959194509250565b5f82825260208201905092915050565b7f4173736574466163746f72793a20496d706c656d656e746174696f6e206e6f745f8201527f2073657400000000000000000000000000000000000000000000000000000000602082015250565b5f610ee6602483610e7c565b9150610ef182610e8c565b604082019050919050565b5f6020820190508181035f830152610f1381610eda565b9050919050565b5f81519050919050565b8281835e5f83830152505050565b5f610f3c82610f1a565b610f468185610e7c565b9350610f56818560208601610f24565b610f5f81610c79565b840191505092915050565b5f60a0820190508181035f830152610f828188610f32565b90508181036020830152610f968187610f32565b9050610fa56040830186610c49565b610fb26060830185610be3565b610fbf6080830184610c49565b9695505050505050565b5f6040820190508181035f830152610fe18185610f32565b90508181036020830152610ff58184610f32565b90509392505050565b5f6040820190506110115f830185610c49565b61101e6020830184610be3565b9392505050565b61102e81610dad565b82525050565b5f6040820190506110475f830185611025565b6110546020830184611025565b939250505056fea26469706673582212204db299eca174500229ffe0e4e6cc5cde288297d16ed5b71870c224a55a03468c64736f6c634300081e0033","linkReferences":{}},"methodIdentifiers":{"DEFAULT_ADMIN_ROLE()":"a217fddf","complianceRegistry()":"cac89c5c","deployAsset(string,string,bytes32,uint256)":"c45411c3","getRoleAdmin(bytes32)":"248a9ca3","grantRole(bytes32,address)":"2f2ff15d","hasRole(bytes32,address)":"91d14854","renounceRole(bytes32,address)":"36568abe","revokeRole(bytes32,address)":"d547741f","supportsInterface(bytes4)":"01ffc9a7","tokenImplementation()":"2f3a3d5d","updateImplementation(address)":"025b22bc"},"id":39}