{"abi":[{"type":"constructor","inputs":[{"name":"_identityRegistry","type":"address","internalType":"address"}],"stateMutability":"nonpayable"},{"type":"function","name":"COMPLIANCE_ADMIN_ROLE","inputs":[],"outputs":[{"name":"","type":"bytes32","internalType":"bytes32"}],"stateMutability":"view"},{"type":"function","name":"DEFAULT_ADMIN_ROLE","inputs":[],"outputs":[{"name":"","type":"bytes32","internalType":"bytes32"}],"stateMutability":"view"},{"type":"function","name":"checkCompliance","inputs":[{"name":"user","type":"address","internalType":"address"},{"name":"ruleId","type":"bytes32","internalType":"bytes32"}],"outputs":[{"name":"","type":"bool","internalType":"bool"}],"stateMutability":"view"},{"type":"function","name":"getRoleAdmin","inputs":[{"name":"role","type":"bytes32","internalType":"bytes32"}],"outputs":[{"name":"","type":"bytes32","internalType":"bytes32"}],"stateMutability":"view"},{"type":"function","name":"grantRole","inputs":[{"name":"role","type":"bytes32","internalType":"bytes32"},{"name":"account","type":"address","internalType":"address"}],"outputs":[],"stateMutability":"nonpayable"},{"type":"function","name":"hasRole","inputs":[{"name":"role","type":"bytes32","internalType":"bytes32"},{"name":"account","type":"address","internalType":"address"}],"outputs":[{"name":"","type":"bool","internalType":"bool"}],"stateMutability":"view"},{"type":"function","name":"identityRegistry","inputs":[],"outputs":[{"name":"","type":"address","internalType":"contract IdentityRegistry"}],"stateMutability":"view"},{"type":"function","name":"renounceRole","inputs":[{"name":"role","type":"bytes32","internalType":"bytes32"},{"name":"callerConfirmation","type":"address","internalType":"address"}],"outputs":[],"stateMutability":"nonpayable"},{"type":"function","name":"revokeRole","inputs":[{"name":"role","type":"bytes32","internalType":"bytes32"},{"name":"account","type":"address","internalType":"address"}],"outputs":[],"stateMutability":"nonpayable"},{"type":"function","name":"rules","inputs":[{"name":"","type":"bytes32","internalType":"bytes32"}],"outputs":[{"name":"requiresAccredited","type":"bool","internalType":"bool"},{"name":"requiresKYC","type":"bool","internalType":"bool"}],"stateMutability":"view"},{"type":"function","name":"setRule","inputs":[{"name":"ruleId","type":"bytes32","internalType":"bytes32"},{"name":"requiresAccredited","type":"bool","internalType":"bool"},{"name":"requiresKYC","type":"bool","internalType":"bool"},{"name":"restrictedCountries","type":"uint16[]","internalType":"uint16[]"}],"outputs":[],"stateMutability":"nonpayable"},{"type":"function","name":"supportsInterface","inputs":[{"name":"interfaceId","type":"bytes4","internalType":"bytes4"}],"outputs":[{"name":"","type":"bool","internalType":"bool"}],"stateMutability":"view"},{"type":"event","name":"RoleAdminChanged","inputs":[{"name":"role","type":"bytes32","indexed":true,"internalType":"bytes32"},{"name":"previousAdminRole","type":"bytes32","indexed":true,"internalType":"bytes32"},{"name":"newAdminRole","type":"bytes32","indexed":true,"internalType":"bytes32"}],"anonymous":false},{"type":"event","name":"RoleGranted","inputs":[{"name":"role","type":"bytes32","indexed":true,"internalType":"bytes32"},{"name":"account","type":"address","indexed":true,"internalType":"address"},{"name":"sender","type":"address","indexed":true,"internalType":"address"}],"anonymous":false},{"type":"event","name":"RoleRevoked","inputs":[{"name":"role","type":"bytes32","indexed":true,"internalType":"bytes32"},{"name":"account","type":"address","indexed":true,"internalType":"address"},{"name":"sender","type":"address","indexed":true,"internalType":"address"}],"anonymous":false},{"type":"event","name":"RuleUpdated","inputs":[{"name":"ruleId","type":"bytes32","indexed":true,"internalType":"bytes32"},{"name":"requiresAccredited","type":"bool","indexed":false,"internalType":"bool"},{"name":"requiresKYC","type":"bool","indexed":false,"internalType":"bool"}],"anonymous":false},{"type":"error","name":"AccessControlBadConfirmation","inputs":[]},{"type":"error","name":"AccessControlUnauthorizedAccount","inputs":[{"name":"account","type":"address","internalType":"address"},{"name":"neededRole","type":"bytes32","internalType":"bytes32"}]}],"bytecode":{"object":"0x60a060405234801561000f575f5ffd5b506040516115273803806115278339818101604052810190610031919061026c565b8073ffffffffffffffffffffffffffffffffffffffff1660808173ffffffffffffffffffffffffffffffffffffffff16815250506100775f5f1b336100af60201b60201c565b506100a87f6390f5a69ff59edce8e461308dbd399b74f0414e629057022cbc92159a014c76336100af60201b60201c565b5050610297565b5f6100c083836101a460201b60201c565b61019a5760015f5f8581526020019081526020015f205f015f8473ffffffffffffffffffffffffffffffffffffffff1673ffffffffffffffffffffffffffffffffffffffff1681526020019081526020015f205f6101000a81548160ff02191690831515021790555061013761020760201b60201c565b73ffffffffffffffffffffffffffffffffffffffff168273ffffffffffffffffffffffffffffffffffffffff16847f2f8788117e7eff1d82e926ec794901d17c78024a50270940304540a733656f0d60405160405180910390a46001905061019e565b5f90505b92915050565b5f5f5f8481526020019081526020015f205f015f8373ffffffffffffffffffffffffffffffffffffffff1673ffffffffffffffffffffffffffffffffffffffff1681526020019081526020015f205f9054906101000a900460ff16905092915050565b5f33905090565b5f5ffd5b5f73ffffffffffffffffffffffffffffffffffffffff82169050919050565b5f61023b82610212565b9050919050565b61024b81610231565b8114610255575f5ffd5b50565b5f8151905061026681610242565b92915050565b5f602082840312156102815761028061020e565b5b5f61028e84828501610258565b91505092915050565b6080516112636102c45f395f81816102ec015281816106a00152818161075101526107fb01526112635ff3fe608060405234801561000f575f5ffd5b50600436106100b2575f3560e01c806391d148541161006f57806391d148541461019d578063a11939bd146101cd578063a217fddf146101eb578063b0efbbde14610209578063c07a95db14610225578063d547741f14610255576100b2565b806301ffc9a7146100b6578063134e18f4146100e6578063216b857714610104578063248a9ca3146101355780632f2ff15d1461016557806336568abe14610181575b5f5ffd5b6100d060048036038101906100cb9190610ce0565b610271565b6040516100dd9190610d25565b60405180910390f35b6100ee6102ea565b6040516100fb9190610db8565b60405180910390f35b61011e60048036038101906101199190610e04565b61030e565b60405161012c929190610e2f565b60405180910390f35b61014f600480360381019061014a9190610e04565b610346565b60405161015c9190610e65565b60405180910390f35b61017f600480360381019061017a9190610eb9565b610362565b005b61019b60048036038101906101969190610eb9565b610384565b005b6101b760048036038101906101b29190610eb9565b6103ff565b6040516101c49190610d25565b60405180910390f35b6101d5610462565b6040516101e29190610e65565b60405180910390f35b6101f3610486565b6040516102009190610e65565b60405180910390f35b610223600480360381019061021e9190610f82565b61048c565b005b61023f600480360381019061023a9190611006565b6105c4565b60405161024c9190610d25565b60405180910390f35b61026f600480360381019061026a9190610eb9565b6108f8565b005b5f7f7965db0b000000000000000000000000000000000000000000000000000000007bffffffffffffffffffffffffffffffffffffffffffffffffffffffff1916827bffffffffffffffffffffffffffffffffffffffffffffffffffffffff191614806102e357506102e28261091a565b5b9050919050565b7f000000000000000000000000000000000000000000000000000000000000000081565b6001602052805f5260405f205f91509050805f015f9054906101000a900460ff1690805f0160019054906101000a900460ff16905082565b5f5f5f8381526020019081526020015f20600101549050919050565b61036b82610346565b61037481610983565b61037e8383610997565b50505050565b61038c610a80565b73ffffffffffffffffffffffffffffffffffffffff168173ffffffffffffffffffffffffffffffffffffffff16146103f0576040517f6697b23200000000000000000000000000000000000000000000000000000000815260040160405180910390fd5b6103fa8282610a87565b505050565b5f5f5f8481526020019081526020015f205f015f8373ffffffffffffffffffffffffffffffffffffffff1673ffffffffffffffffffffffffffffffffffffffff1681526020019081526020015f205f9054906101000a900460ff16905092915050565b7f6390f5a69ff59edce8e461308dbd399b74f0414e629057022cbc92159a014c7681565b5f5f1b81565b7f6390f5a69ff59edce8e461308dbd399b74f0414e629057022cbc92159a014c766104b681610983565b6040518060600160405280861515815260200185151581526020018484808060200260200160405190810160405280939291908181526020018383602002808284375f81840152601f19601f8201169050808301925050505050505081525060015f8881526020019081526020015f205f820151815f015f6101000a81548160ff0219169083151502179055506020820151815f0160016101000a81548160ff021916908315150217905550604082015181600101908051906020019061057e929190610bc1565b50905050857f9133b9713424b0e452da08d2c151e2fa6171df9620998b8a6bdd676f52d7ff9086866040516105b4929190610e2f565b60405180910390a2505050505050565b5f5f60015f8481526020019081526020015f206040518060600160405290815f82015f9054906101000a900460ff161515151581526020015f820160019054906101000a900460ff161515151581526020016001820180548060200260200160405190810160405280929190818152602001828054801561068957602002820191905f5260205f20905f905b82829054906101000a900461ffff1661ffff16815260200190600201906020826001010492830192600103820291508084116106505790505b5050505050815250509050806020015115610746577f000000000000000000000000000000000000000000000000000000000000000073ffffffffffffffffffffffffffffffffffffffff166393c81dd6855f6040518363ffffffff1660e01b81526004016106f9929190611098565b602060405180830381865afa158015610714573d5f5f3e3d5ffd5b505050506040513d601f19601f8201168201806040525081019061073891906110d3565b610745575f9150506108f2565b5b805f0151156107f8577f000000000000000000000000000000000000000000000000000000000000000073ffffffffffffffffffffffffffffffffffffffff166393c81dd68560026040518363ffffffff1660e01b81526004016107ab929190611137565b602060405180830381865afa1580156107c6573d5f5f3e3d5ffd5b505050506040513d601f19601f820116820180604052508101906107ea91906110d3565b6107f7575f9150506108f2565b5b5f7f000000000000000000000000000000000000000000000000000000000000000073ffffffffffffffffffffffffffffffffffffffff16637e42683b866040518263ffffffff1660e01b8152600401610852919061115e565b602060405180830381865afa15801561086d573d5f5f3e3d5ffd5b505050506040513d601f19601f8201168201806040525081019061089191906111ae565b90505f5f90505b8260400151518110156108ea57826040015181815181106108bc576108bb6111d9565b5b602002602001015161ffff168261ffff16036108dd575f93505050506108f2565b8080600101915050610898565b506001925050505b92915050565b61090182610346565b61090a81610983565b6109148383610a87565b50505050565b5f7f01ffc9a7000000000000000000000000000000000000000000000000000000007bffffffffffffffffffffffffffffffffffffffffffffffffffffffff1916827bffffffffffffffffffffffffffffffffffffffffffffffffffffffff1916149050919050565b6109948161098f610a80565b610b70565b50565b5f6109a283836103ff565b610a765760015f5f8581526020019081526020015f205f015f8473ffffffffffffffffffffffffffffffffffffffff1673ffffffffffffffffffffffffffffffffffffffff1681526020019081526020015f205f6101000a81548160ff021916908315150217905550610a13610a80565b73ffffffffffffffffffffffffffffffffffffffff168273ffffffffffffffffffffffffffffffffffffffff16847f2f8788117e7eff1d82e926ec794901d17c78024a50270940304540a733656f0d60405160405180910390a460019050610a7a565b5f90505b92915050565b5f33905090565b5f610a9283836103ff565b15610b66575f5f5f8581526020019081526020015f205f015f8473ffffffffffffffffffffffffffffffffffffffff1673ffffffffffffffffffffffffffffffffffffffff1681526020019081526020015f205f6101000a81548160ff021916908315150217905550610b03610a80565b73ffffffffffffffffffffffffffffffffffffffff168273ffffffffffffffffffffffffffffffffffffffff16847ff6391f5c32d9c69d2a47ea670b442974b53935d1edc7fd64eb21e047a839171b60405160405180910390a460019050610b6a565b5f90505b92915050565b610b7a82826103ff565b610bbd5780826040517fe2517d3f000000000000000000000000000000000000000000000000000000008152600401610bb4929190611206565b60405180910390fd5b5050565b828054828255905f5260205f2090600f01601090048101928215610c57579160200282015f5b83821115610c2757835183826101000a81548161ffff021916908361ffff1602179055509260200192600201602081600101049283019260010302610be7565b8015610c555782816101000a81549061ffff0219169055600201602081600101049283019260010302610c27565b505b509050610c649190610c68565b5090565b5b80821115610c7f575f815f905550600101610c69565b5090565b5f5ffd5b5f5ffd5b5f7fffffffff0000000000000000000000000000000000000000000000000000000082169050919050565b610cbf81610c8b565b8114610cc9575f5ffd5b50565b5f81359050610cda81610cb6565b92915050565b5f60208284031215610cf557610cf4610c83565b5b5f610d0284828501610ccc565b91505092915050565b5f8115159050919050565b610d1f81610d0b565b82525050565b5f602082019050610d385f830184610d16565b92915050565b5f73ffffffffffffffffffffffffffffffffffffffff82169050919050565b5f819050919050565b5f610d80610d7b610d7684610d3e565b610d5d565b610d3e565b9050919050565b5f610d9182610d66565b9050919050565b5f610da282610d87565b9050919050565b610db281610d98565b82525050565b5f602082019050610dcb5f830184610da9565b92915050565b5f819050919050565b610de381610dd1565b8114610ded575f5ffd5b50565b5f81359050610dfe81610dda565b92915050565b5f60208284031215610e1957610e18610c83565b5b5f610e2684828501610df0565b91505092915050565b5f604082019050610e425f830185610d16565b610e4f6020830184610d16565b9392505050565b610e5f81610dd1565b82525050565b5f602082019050610e785f830184610e56565b92915050565b5f610e8882610d3e565b9050919050565b610e9881610e7e565b8114610ea2575f5ffd5b50565b5f81359050610eb381610e8f565b92915050565b5f5f60408385031215610ecf57610ece610c83565b5b5f610edc85828601610df0565b9250506020610eed85828601610ea5565b9150509250929050565b610f0081610d0b565b8114610f0a575f5ffd5b50565b5f81359050610f1b81610ef7565b92915050565b5f5ffd5b5f5ffd5b5f5ffd5b5f5f83601f840112610f4257610f41610f21565b5b8235905067ffffffffffffffff811115610f5f57610f5e610f25565b5b602083019150836020820283011115610f7b57610f7a610f29565b5b9250929050565b5f5f5f5f5f60808688031215610f9b57610f9a610c83565b5b5f610fa888828901610df0565b9550506020610fb988828901610f0d565b9450506040610fca88828901610f0d565b935050606086013567ffffffffffffffff811115610feb57610fea610c87565b5b610ff788828901610f2d565b92509250509295509295909350565b5f5f6040838503121561101c5761101b610c83565b5b5f61102985828601610ea5565b925050602061103a85828601610df0565b9150509250929050565b61104d81610e7e565b82525050565b5f819050919050565b5f60ff82169050919050565b5f61108261107d61107884611053565b610d5d565b61105c565b9050919050565b61109281611068565b82525050565b5f6040820190506110ab5f830185611044565b6110b86020830184611089565b9392505050565b5f815190506110cd81610ef7565b92915050565b5f602082840312156110e8576110e7610c83565b5b5f6110f5848285016110bf565b91505092915050565b5f819050919050565b5f61112161111c611117846110fe565b610d5d565b61105c565b9050919050565b61113181611107565b82525050565b5f60408201905061114a5f830185611044565b6111576020830184611128565b9392505050565b5f6020820190506111715f830184611044565b92915050565b5f61ffff82169050919050565b61118d81611177565b8114611197575f5ffd5b50565b5f815190506111a881611184565b92915050565b5f602082840312156111c3576111c2610c83565b5b5f6111d08482850161119a565b91505092915050565b7f4e487b71000000000000000000000000000000000000000000000000000000005f52603260045260245ffd5b5f6040820190506112195f830185611044565b6112266020830184610e56565b939250505056fea2646970667358221220778a7d17091654360a179f7e9ccece2b6bfb756a36c40affdb369880e8e73a2464736f6c634300081e0033","linkReferences":{}},"methodIdentifiers":{"COMPLIANCE_ADMIN_ROLE()":"a11939bd","DEFAULT_ADMIN_ROLE()":"a217fddf","checkCompliance(address,bytes32)":"c07a95db","getRoleAdmin(bytes32)":"248a9ca3","grantRole(bytes32,address)":"2f2ff15d","hasRole(bytes32,address)":"91d14854","identityRegistry()":"134e18f4","renounceRole(bytes32,address)":"36568abe","revokeRole(bytes32,address)":"d547741f","rules(bytes32)":"216b8577","setRule(bytes32,bool,bool,uint16[])":"b0efbbde","supportsInterface(bytes4)":"01ffc9a7"},"id":35}