{"abi":[{"type":"constructor","inputs":[],"stateMutability":"nonpayable"},{"type":"function","name":"DEFAULT_ADMIN_ROLE","inputs":[],"outputs":[{"name":"","type":"bytes32","internalType":"bytes32"}],"stateMutability":"view"},{"type":"function","name":"REGISTRAR_ROLE","inputs":[],"outputs":[{"name":"","type":"bytes32","internalType":"bytes32"}],"stateMutability":"view"},{"type":"function","name":"getRoleAdmin","inputs":[{"name":"role","type":"bytes32","internalType":"bytes32"}],"outputs":[{"name":"","type":"bytes32","internalType":"bytes32"}],"stateMutability":"view"},{"type":"function","name":"grantRole","inputs":[{"name":"role","type":"bytes32","internalType":"bytes32"},{"name":"account","type":"address","internalType":"address"}],"outputs":[],"stateMutability":"nonpayable"},{"type":"function","name":"hasClaim","inputs":[{"name":"user","type":"address","internalType":"address"},{"name":"claimBitIndex","type":"uint8","internalType":"uint8"}],"outputs":[{"name":"","type":"bool","internalType":"bool"}],"stateMutability":"view"},{"type":"function","name":"hasRole","inputs":[{"name":"role","type":"bytes32","internalType":"bytes32"},{"name":"account","type":"address","internalType":"address"}],"outputs":[{"name":"","type":"bool","internalType":"bool"}],"stateMutability":"view"},{"type":"function","name":"identityClaims","inputs":[{"name":"","type":"address","internalType":"address"}],"outputs":[{"name":"","type":"uint256","internalType":"uint256"}],"stateMutability":"view"},{"type":"function","name":"investorCountry","inputs":[{"name":"","type":"address","internalType":"address"}],"outputs":[{"name":"","type":"uint16","internalType":"uint16"}],"stateMutability":"view"},{"type":"function","name":"isFromCountry","inputs":[{"name":"user","type":"address","internalType":"address"},{"name":"country","type":"uint16","internalType":"uint16"}],"outputs":[{"name":"","type":"bool","internalType":"bool"}],"stateMutability":"view"},{"type":"function","name":"removeIdentity","inputs":[{"name":"user","type":"address","internalType":"address"}],"outputs":[],"stateMutability":"nonpayable"},{"type":"function","name":"renounceRole","inputs":[{"name":"role","type":"bytes32","internalType":"bytes32"},{"name":"callerConfirmation","type":"address","internalType":"address"}],"outputs":[],"stateMutability":"nonpayable"},{"type":"function","name":"revokeRole","inputs":[{"name":"role","type":"bytes32","internalType":"bytes32"},{"name":"account","type":"address","internalType":"address"}],"outputs":[],"stateMutability":"nonpayable"},{"type":"function","name":"setIdentity","inputs":[{"name":"user","type":"address","internalType":"address"},{"name":"country","type":"uint16","internalType":"uint16"},{"name":"claims","type":"uint256","internalType":"uint256"}],"outputs":[],"stateMutability":"nonpayable"},{"type":"function","name":"supportsInterface","inputs":[{"name":"interfaceId","type":"bytes4","internalType":"bytes4"}],"outputs":[{"name":"","type":"bool","internalType":"bool"}],"stateMutability":"view"},{"type":"event","name":"IdentityRemoved","inputs":[{"name":"user","type":"address","indexed":true,"internalType":"address"}],"anonymous":false},{"type":"event","name":"IdentityUpdated","inputs":[{"name":"user","type":"address","indexed":true,"internalType":"address"},{"name":"country","type":"uint16","indexed":false,"internalType":"uint16"},{"name":"claims","type":"uint256","indexed":false,"internalType":"uint256"}],"anonymous":false},{"type":"event","name":"RoleAdminChanged","inputs":[{"name":"role","type":"bytes32","indexed":true,"internalType":"bytes32"},{"name":"previousAdminRole","type":"bytes32","indexed":true,"internalType":"bytes32"},{"name":"newAdminRole","type":"bytes32","indexed":true,"internalType":"bytes32"}],"anonymous":false},{"type":"event","name":"RoleGranted","inputs":[{"name":"role","type":"bytes32","indexed":true,"internalType":"bytes32"},{"name":"account","type":"address","indexed":true,"internalType":"address"},{"name":"sender","type":"address","indexed":true,"internalType":"address"}],"anonymous":false},{"type":"event","name":"RoleRevoked","inputs":[{"name":"role","type":"bytes32","indexed":true,"internalType":"bytes32"},{"name":"account","type":"address","indexed":true,"internalType":"address"},{"name":"sender","type":"address","indexed":true,"internalType":"address"}],"anonymous":false},{"type":"error","name":"AccessControlBadConfirmation","inputs":[]},{"type":"error","name":"AccessControlUnauthorizedAccount","inputs":[{"name":"account","type":"address","internalType":"address"},{"name":"neededRole","type":"bytes32","internalType":"bytes32"}]}],"bytecode":{"object":"0x608060405234801561000f575f5ffd5b506100225f5f1b3361005960201b60201c565b506100537fedcc084d3dcd65a1f7f23c65c46722faca6953d28e43150a467cf43e5c3092383361005960201b60201c565b506101b8565b5f61006a838361014e60201b60201c565b6101445760015f5f8581526020019081526020015f205f015f8473ffffffffffffffffffffffffffffffffffffffff1673ffffffffffffffffffffffffffffffffffffffff1681526020019081526020015f205f6101000a81548160ff0219169083151502179055506100e16101b160201b60201c565b73ffffffffffffffffffffffffffffffffffffffff168273ffffffffffffffffffffffffffffffffffffffff16847f2f8788117e7eff1d82e926ec794901d17c78024a50270940304540a733656f0d60405160405180910390a460019050610148565b5f90505b92915050565b5f5f5f8481526020019081526020015f205f015f8373ffffffffffffffffffffffffffffffffffffffff1673ffffffffffffffffffffffffffffffffffffffff1681526020019081526020015f205f9054906101000a900460ff16905092915050565b5f33905090565b610ed5806101c55f395ff3fe608060405234801561000f575f5ffd5b50600436106100e8575f3560e01c806391d148541161008a578063c1f2f1aa11610064578063c1f2f1aa14610292578063cf09c30e146102ae578063d547741f146102ca578063f68e9553146102e6576100e8565b806391d148541461021457806393c81dd614610244578063a217fddf14610274576100e8565b806336568abe116100c657806336568abe1461016857806370389643146101845780637e42683b146101b457806391b49755146101e4576100e8565b806301ffc9a7146100ec578063248a9ca31461011c5780632f2ff15d1461014c575b5f5ffd5b61010660048036038101906101019190610adf565b610304565b6040516101139190610b24565b60405180910390f35b61013660048036038101906101319190610b70565b61037d565b6040516101439190610baa565b60405180910390f35b61016660048036038101906101619190610c1d565b610399565b005b610182600480360381019061017d9190610c1d565b6103bb565b005b61019e60048036038101906101999190610c5b565b610436565b6040516101ab9190610c9e565b60405180910390f35b6101ce60048036038101906101c99190610c5b565b61044b565b6040516101db9190610cd3565b60405180910390f35b6101fe60048036038101906101f99190610d16565b610469565b60405161020b9190610b24565b60405180910390f35b61022e60048036038101906102299190610c1d565b6104c7565b60405161023b9190610b24565b60405180910390f35b61025e60048036038101906102599190610d8a565b61052a565b60405161026b9190610b24565b60405180910390f35b61027c61057c565b6040516102899190610baa565b60405180910390f35b6102ac60048036038101906102a79190610c5b565b610582565b005b6102c860048036038101906102c39190610df2565b610680565b005b6102e460048036038101906102df9190610c1d565b610799565b005b6102ee6107bb565b6040516102fb9190610baa565b60405180910390f35b5f7f7965db0b000000000000000000000000000000000000000000000000000000007bffffffffffffffffffffffffffffffffffffffffffffffffffffffff1916827bffffffffffffffffffffffffffffffffffffffffffffffffffffffff191614806103765750610375826107df565b5b9050919050565b5f5f5f8381526020019081526020015f20600101549050919050565b6103a28261037d565b6103ab81610848565b6103b5838361085c565b50505050565b6103c3610945565b73ffffffffffffffffffffffffffffffffffffffff168173ffffffffffffffffffffffffffffffffffffffff1614610427576040517f6697b23200000000000000000000000000000000000000000000000000000000815260040160405180910390fd5b610431828261094c565b505050565b6002602052805f5260405f205f915090505481565b6001602052805f5260405f205f915054906101000a900461ffff1681565b5f8161ffff1660015f8573ffffffffffffffffffffffffffffffffffffffff1673ffffffffffffffffffffffffffffffffffffffff1681526020019081526020015f205f9054906101000a900461ffff1661ffff1614905092915050565b5f5f5f8481526020019081526020015f205f015f8373ffffffffffffffffffffffffffffffffffffffff1673ffffffffffffffffffffffffffffffffffffffff1681526020019081526020015f205f9054906101000a900460ff16905092915050565b5f6001808360ff1660025f8773ffffffffffffffffffffffffffffffffffffffff1673ffffffffffffffffffffffffffffffffffffffff1681526020019081526020015f2054901c1614905092915050565b5f5f1b81565b7fedcc084d3dcd65a1f7f23c65c46722faca6953d28e43150a467cf43e5c3092386105ac81610848565b60015f8373ffffffffffffffffffffffffffffffffffffffff1673ffffffffffffffffffffffffffffffffffffffff1681526020019081526020015f205f6101000a81549061ffff021916905560025f8373ffffffffffffffffffffffffffffffffffffffff1673ffffffffffffffffffffffffffffffffffffffff1681526020019081526020015f205f90558173ffffffffffffffffffffffffffffffffffffffff167f374ace31388bb8ee152e1f7ad5e216944c28a32dfedb6c9353ba26bf0cdbb15a60405160405180910390a25050565b7fedcc084d3dcd65a1f7f23c65c46722faca6953d28e43150a467cf43e5c3092386106aa81610848565b8260015f8673ffffffffffffffffffffffffffffffffffffffff1673ffffffffffffffffffffffffffffffffffffffff1681526020019081526020015f205f6101000a81548161ffff021916908361ffff1602179055508160025f8673ffffffffffffffffffffffffffffffffffffffff1673ffffffffffffffffffffffffffffffffffffffff1681526020019081526020015f20819055508373ffffffffffffffffffffffffffffffffffffffff167fc6e61adbbeea91c3fd926f72939eb0f3cfbe0056b3d4584c47cd26ee5b72a000848460405161078b929190610e42565b60405180910390a250505050565b6107a28261037d565b6107ab81610848565b6107b5838361094c565b50505050565b7fedcc084d3dcd65a1f7f23c65c46722faca6953d28e43150a467cf43e5c30923881565b5f7f01ffc9a7000000000000000000000000000000000000000000000000000000007bffffffffffffffffffffffffffffffffffffffffffffffffffffffff1916827bffffffffffffffffffffffffffffffffffffffffffffffffffffffff1916149050919050565b61085981610854610945565b610a35565b50565b5f61086783836104c7565b61093b5760015f5f8581526020019081526020015f205f015f8473ffffffffffffffffffffffffffffffffffffffff1673ffffffffffffffffffffffffffffffffffffffff1681526020019081526020015f205f6101000a81548160ff0219169083151502179055506108d8610945565b73ffffffffffffffffffffffffffffffffffffffff168273ffffffffffffffffffffffffffffffffffffffff16847f2f8788117e7eff1d82e926ec794901d17c78024a50270940304540a733656f0d60405160405180910390a46001905061093f565b5f90505b92915050565b5f33905090565b5f61095783836104c7565b15610a2b575f5f5f8581526020019081526020015f205f015f8473ffffffffffffffffffffffffffffffffffffffff1673ffffffffffffffffffffffffffffffffffffffff1681526020019081526020015f205f6101000a81548160ff0219169083151502179055506109c8610945565b73ffffffffffffffffffffffffffffffffffffffff168273ffffffffffffffffffffffffffffffffffffffff16847ff6391f5c32d9c69d2a47ea670b442974b53935d1edc7fd64eb21e047a839171b60405160405180910390a460019050610a2f565b5f90505b92915050565b610a3f82826104c7565b610a825780826040517fe2517d3f000000000000000000000000000000000000000000000000000000008152600401610a79929190610e78565b60405180910390fd5b5050565b5f5ffd5b5f7fffffffff0000000000000000000000000000000000000000000000000000000082169050919050565b610abe81610a8a565b8114610ac8575f5ffd5b50565b5f81359050610ad981610ab5565b92915050565b5f60208284031215610af457610af3610a86565b5b5f610b0184828501610acb565b91505092915050565b5f8115159050919050565b610b1e81610b0a565b82525050565b5f602082019050610b375f830184610b15565b92915050565b5f819050919050565b610b4f81610b3d565b8114610b59575f5ffd5b50565b5f81359050610b6a81610b46565b92915050565b5f60208284031215610b8557610b84610a86565b5b5f610b9284828501610b5c565b91505092915050565b610ba481610b3d565b82525050565b5f602082019050610bbd5f830184610b9b565b92915050565b5f73ffffffffffffffffffffffffffffffffffffffff82169050919050565b5f610bec82610bc3565b9050919050565b610bfc81610be2565b8114610c06575f5ffd5b50565b5f81359050610c1781610bf3565b92915050565b5f5f60408385031215610c3357610c32610a86565b5b5f610c4085828601610b5c565b9250506020610c5185828601610c09565b9150509250929050565b5f60208284031215610c7057610c6f610a86565b5b5f610c7d84828501610c09565b91505092915050565b5f819050919050565b610c9881610c86565b82525050565b5f602082019050610cb15f830184610c8f565b92915050565b5f61ffff82169050919050565b610ccd81610cb7565b82525050565b5f602082019050610ce65f830184610cc4565b92915050565b610cf581610cb7565b8114610cff575f5ffd5b50565b5f81359050610d1081610cec565b92915050565b5f5f60408385031215610d2c57610d2b610a86565b5b5f610d3985828601610c09565b9250506020610d4a85828601610d02565b9150509250929050565b5f60ff82169050919050565b610d6981610d54565b8114610d73575f5ffd5b50565b5f81359050610d8481610d60565b92915050565b5f5f60408385031215610da057610d9f610a86565b5b5f610dad85828601610c09565b9250506020610dbe85828601610d76565b9150509250929050565b610dd181610c86565b8114610ddb575f5ffd5b50565b5f81359050610dec81610dc8565b92915050565b5f5f5f60608486031215610e0957610e08610a86565b5b5f610e1686828701610c09565b9350506020610e2786828701610d02565b9250506040610e3886828701610dde565b9150509250925092565b5f604082019050610e555f830185610cc4565b610e626020830184610c8f565b9392505050565b610e7281610be2565b82525050565b5f604082019050610e8b5f830185610e69565b610e986020830184610b9b565b939250505056fea26469706673582212207437dd83fa7f863e3671b26618d68b4b2c4d52f8f13fe05393ce1d268108555164736f6c634300081e0033","linkReferences":{}},"methodIdentifiers":{"DEFAULT_ADMIN_ROLE()":"a217fddf","REGISTRAR_ROLE()":"f68e9553","getRoleAdmin(bytes32)":"248a9ca3","grantRole(bytes32,address)":"2f2ff15d","hasClaim(address,uint8)":"93c81dd6","hasRole(bytes32,address)":"91d14854","identityClaims(address)":"70389643","investorCountry(address)":"7e42683b","isFromCountry(address,uint16)":"91b49755","removeIdentity(address)":"c1f2f1aa","renounceRole(bytes32,address)":"36568abe","revokeRole(bytes32,address)":"d547741f","setIdentity(address,uint16,uint256)":"cf09c30e","supportsInterface(bytes4)":"01ffc9a7"},"id":37}