{"abi":[{"type":"constructor","inputs":[],"stateMutability":"nonpayable"},{"type":"function","name":"COMPLIANCE_ROLE","inputs":[],"outputs":[{"name":"","type":"bytes32","internalType":"bytes32"}],"stateMutability":"view"},{"type":"function","name":"DEFAULT_ADMIN_ROLE","inputs":[],"outputs":[{"name":"","type":"bytes32","internalType":"bytes32"}],"stateMutability":"view"},{"type":"function","name":"MINTER_ROLE","inputs":[],"outputs":[{"name":"","type":"bytes32","internalType":"bytes32"}],"stateMutability":"view"},{"type":"function","name":"PAUSER_ROLE","inputs":[],"outputs":[{"name":"","type":"bytes32","internalType":"bytes32"}],"stateMutability":"view"},{"type":"function","name":"RECOVERY_ROLE","inputs":[],"outputs":[{"name":"","type":"bytes32","internalType":"bytes32"}],"stateMutability":"view"},{"type":"function","name":"allowance","inputs":[{"name":"owner","type":"address","internalType":"address"},{"name":"spender","type":"address","internalType":"address"}],"outputs":[{"name":"","type":"uint256","internalType":"uint256"}],"stateMutability":"view"},{"type":"function","name":"approve","inputs":[{"name":"spender","type":"address","internalType":"address"},{"name":"value","type":"uint256","internalType":"uint256"}],"outputs":[{"name":"","type":"bool","internalType":"bool"}],"stateMutability":"nonpayable"},{"type":"function","name":"balanceOf","inputs":[{"name":"account","type":"address","internalType":"address"}],"outputs":[{"name":"","type":"uint256","internalType":"uint256"}],"stateMutability":"view"},{"type":"function","name":"complianceRegistry","inputs":[],"outputs":[{"name":"","type":"address","internalType":"contract ComplianceRegistry"}],"stateMutability":"view"},{"type":"function","name":"complianceRuleId","inputs":[],"outputs":[{"name":"","type":"bytes32","internalType":"bytes32"}],"stateMutability":"view"},{"type":"function","name":"decimals","inputs":[],"outputs":[{"name":"","type":"uint8","internalType":"uint8"}],"stateMutability":"view"},{"type":"function","name":"docNames","inputs":[{"name":"","type":"uint256","internalType":"uint256"}],"outputs":[{"name":"","type":"bytes32","internalType":"bytes32"}],"stateMutability":"view"},{"type":"function","name":"documents","inputs":[{"name":"","type":"bytes32","internalType":"bytes32"}],"outputs":[{"name":"docHash","type":"bytes32","internalType":"bytes32"},{"name":"lastModified","type":"uint256","internalType":"uint256"},{"name":"uri","type":"string","internalType":"string"}],"stateMutability":"view"},{"type":"function","name":"forceTransfer","inputs":[{"name":"from","type":"address","internalType":"address"},{"name":"to","type":"address","internalType":"address"},{"name":"amount","type":"uint256","internalType":"uint256"}],"outputs":[],"stateMutability":"nonpayable"},{"type":"function","name":"getRoleAdmin","inputs":[{"name":"role","type":"bytes32","internalType":"bytes32"}],"outputs":[{"name":"","type":"bytes32","internalType":"bytes32"}],"stateMutability":"view"},{"type":"function","name":"grantRole","inputs":[{"name":"role","type":"bytes32","internalType":"bytes32"},{"name":"account","type":"address","internalType":"address"}],"outputs":[],"stateMutability":"nonpayable"},{"type":"function","name":"hasRole","inputs":[{"name":"role","type":"bytes32","internalType":"bytes32"},{"name":"account","type":"address","internalType":"address"}],"outputs":[{"name":"","type":"bool","internalType":"bool"}],"stateMutability":"view"},{"type":"function","name":"initialize","inputs":[{"name":"name","type":"string","internalType":"string"},{"name":"symbol","type":"string","internalType":"string"},{"name":"_complianceRegistry","type":"address","internalType":"address"},{"name":"_complianceRuleId","type":"bytes32","internalType":"bytes32"},{"name":"admin","type":"address","internalType":"address"}],"outputs":[],"stateMutability":"nonpayable"},{"type":"function","name":"mint","inputs":[{"name":"to","type":"address","internalType":"address"},{"name":"amount","type":"uint256","internalType":"uint256"}],"outputs":[],"stateMutability":"nonpayable"},{"type":"function","name":"name","inputs":[],"outputs":[{"name":"","type":"string","internalType":"string"}],"stateMutability":"view"},{"type":"function","name":"pause","inputs":[],"outputs":[],"stateMutability":"nonpayable"},{"type":"function","name":"paused","inputs":[],"outputs":[{"name":"","type":"bool","internalType":"bool"}],"stateMutability":"view"},{"type":"function","name":"renounceRole","inputs":[{"name":"role","type":"bytes32","internalType":"bytes32"},{"name":"callerConfirmation","type":"address","internalType":"address"}],"outputs":[],"stateMutability":"nonpayable"},{"type":"function","name":"revokeRole","inputs":[{"name":"role","type":"bytes32","internalType":"bytes32"},{"name":"account","type":"address","internalType":"address"}],"outputs":[],"stateMutability":"nonpayable"},{"type":"function","name":"setComplianceRegistry","inputs":[{"name":"_newRegistry","type":"address","internalType":"address"}],"outputs":[],"stateMutability":"nonpayable"},{"type":"function","name":"setComplianceRuleId","inputs":[{"name":"_newRuleId","type":"bytes32","internalType":"bytes32"}],"outputs":[],"stateMutability":"nonpayable"},{"type":"function","name":"setDocument","inputs":[{"name":"name","type":"bytes32","internalType":"bytes32"},{"name":"uri","type":"string","internalType":"string"},{"name":"docHash","type":"bytes32","internalType":"bytes32"}],"outputs":[],"stateMutability":"nonpayable"},{"type":"function","name":"supportsInterface","inputs":[{"name":"interfaceId","type":"bytes4","internalType":"bytes4"}],"outputs":[{"name":"","type":"bool","internalType":"bool"}],"stateMutability":"view"},{"type":"function","name":"symbol","inputs":[],"outputs":[{"name":"","type":"string","internalType":"string"}],"stateMutability":"view"},{"type":"function","name":"totalSupply","inputs":[],"outputs":[{"name":"","type":"uint256","internalType":"uint256"}],"stateMutability":"view"},{"type":"function","name":"transfer","inputs":[{"name":"to","type":"address","internalType":"address"},{"name":"value","type":"uint256","internalType":"uint256"}],"outputs":[{"name":"","type":"bool","internalType":"bool"}],"stateMutability":"nonpayable"},{"type":"function","name":"transferFrom","inputs":[{"name":"from","type":"address","internalType":"address"},{"name":"to","type":"address","internalType":"address"},{"name":"value","type":"uint256","internalType":"uint256"}],"outputs":[{"name":"","type":"bool","internalType":"bool"}],"stateMutability":"nonpayable"},{"type":"function","name":"unpause","inputs":[],"outputs":[],"stateMutability":"nonpayable"},{"type":"event","name":"Approval","inputs":[{"name":"owner","type":"address","indexed":true,"internalType":"address"},{"name":"spender","type":"address","indexed":true,"internalType":"address"},{"name":"value","type":"uint256","indexed":false,"internalType":"uint256"}],"anonymous":false},{"type":"event","name":"ComplianceRegistryUpdated","inputs":[{"name":"newRegistry","type":"address","indexed":true,"internalType":"address"}],"anonymous":false},{"type":"event","name":"ComplianceRuleUpdated","inputs":[{"name":"newRuleId","type":"bytes32","indexed":true,"internalType":"bytes32"}],"anonymous":false},{"type":"event","name":"DocumentUpdated","inputs":[{"name":"name","type":"bytes32","indexed":true,"internalType":"bytes32"},{"name":"uri","type":"string","indexed":false,"internalType":"string"},{"name":"docHash","type":"bytes32","indexed":false,"internalType":"bytes32"}],"anonymous":false},{"type":"event","name":"ForcedTransfer","inputs":[{"name":"from","type":"address","indexed":true,"internalType":"address"},{"name":"to","type":"address","indexed":true,"internalType":"address"},{"name":"amount","type":"uint256","indexed":false,"internalType":"uint256"}],"anonymous":false},{"type":"event","name":"Initialized","inputs":[{"name":"version","type":"uint64","indexed":false,"internalType":"uint64"}],"anonymous":false},{"type":"event","name":"Paused","inputs":[{"name":"account","type":"address","indexed":false,"internalType":"address"}],"anonymous":false},{"type":"event","name":"RoleAdminChanged","inputs":[{"name":"role","type":"bytes32","indexed":true,"internalType":"bytes32"},{"name":"previousAdminRole","type":"bytes32","indexed":true,"internalType":"bytes32"},{"name":"newAdminRole","type":"bytes32","indexed":true,"internalType":"bytes32"}],"anonymous":false},{"type":"event","name":"RoleGranted","inputs":[{"name":"role","type":"bytes32","indexed":true,"internalType":"bytes32"},{"name":"account","type":"address","indexed":true,"internalType":"address"},{"name":"sender","type":"address","indexed":true,"internalType":"address"}],"anonymous":false},{"type":"event","name":"RoleRevoked","inputs":[{"name":"role","type":"bytes32","indexed":true,"internalType":"bytes32"},{"name":"account","type":"address","indexed":true,"internalType":"address"},{"name":"sender","type":"address","indexed":true,"internalType":"address"}],"anonymous":false},{"type":"event","name":"Transfer","inputs":[{"name":"from","type":"address","indexed":true,"internalType":"address"},{"name":"to","type":"address","indexed":true,"internalType":"address"},{"name":"value","type":"uint256","indexed":false,"internalType":"uint256"}],"anonymous":false},{"type":"event","name":"Unpaused","inputs":[{"name":"account","type":"address","indexed":false,"internalType":"address"}],"anonymous":false},{"type":"error","name":"AccessControlBadConfirmation","inputs":[]},{"type":"error","name":"AccessControlUnauthorizedAccount","inputs":[{"name":"account","type":"address","internalType":"address"},{"name":"neededRole","type":"bytes32","internalType":"bytes32"}]},{"type":"error","name":"ERC20InsufficientAllowance","inputs":[{"name":"spender","type":"address","internalType":"address"},{"name":"allowance","type":"uint256","internalType":"uint256"},{"name":"needed","type":"uint256","internalType":"uint256"}]},{"type":"error","name":"ERC20InsufficientBalance","inputs":[{"name":"sender","type":"address","internalType":"address"},{"name":"balance","type":"uint256","internalType":"uint256"},{"name":"needed","type":"uint256","internalType":"uint256"}]},{"type":"error","name":"ERC20InvalidApprover","inputs":[{"name":"approver","type":"address","internalType":"address"}]},{"type":"error","name":"ERC20InvalidReceiver","inputs":[{"name":"receiver","type":"address","internalType":"address"}]},{"type":"error","name":"ERC20InvalidSender","inputs":[{"name":"sender","type":"address","internalType":"address"}]},{"type":"error","name":"ERC20InvalidSpender","inputs":[{"name":"spender","type":"address","internalType":"address"}]},{"type":"error","name":"EnforcedPause","inputs":[]},{"type":"error","name":"ExpectedPause","inputs":[]},{"type":"error","name":"InvalidInitialization","inputs":[]},{"type":"error","name":"NotInitializing","inputs":[]}],"bytecode":{"object":"0x608060405234801561000f575f5ffd5b5061001e61002360201b60201c565b61019e565b5f61003261012160201b60201c565b9050805f0160089054906101000a900460ff161561007c576040517ff92ee8a900000000000000000000000000000000000000000000000000000000815260040160405180910390fd5b67ffffffffffffffff8016815f015f9054906101000a900467ffffffffffffffff1667ffffffffffffffff161461011e5767ffffffffffffffff815f015f6101000a81548167ffffffffffffffff021916908367ffffffffffffffff1602179055507fc7f505b2f371ae2175ee4913f4499e1f2633a7b5936321eed1cdaeb6115181d267ffffffffffffffff6040516101159190610185565b60405180910390a15b50565b5f5f61013161013a60201b60201c565b90508091505090565b5f7ff0c57e16840df040f15088dc2f81fe391c3923bec73e23a9662efc9c229c6a005f1b905090565b5f67ffffffffffffffff82169050919050565b61017f81610163565b82525050565b5f6020820190506101985f830184610176565b92915050565b612e75806101ab5f395ff3fe608060405234801561000f575f5ffd5b50600436106101f9575f3560e01c806340c10f191161011857806393b4d240116100ab578063cac89c5c1161007a578063cac89c5c146105b1578063d5391393146105cf578063d547741f146105ed578063dd62ed3e14610609578063e63ab1e914610639576101f9565b806393b4d2401461052757806395d89b4114610545578063a217fddf14610563578063a9059cbb14610581576101f9565b806370a08231116100e757806370a08231146104a15780638456cb59146104d157806391d14854146104db578063921b740c1461050b576101f9565b806340c10f191461041b57806343561af6146104375780635a9d13a9146104535780635c975abb14610483576101f9565b806324ccbf7f1161019057806331993a1c1161015f57806331993a1c146103bb57806333bebb77146103d957806336568abe146103f55780633f4ba83a14610411576101f9565b806324ccbf7f146103335780632b2805db1461034f5780632f2ff15d14610381578063313ce5671461039d576101f9565b8063095ea7b3116101cc578063095ea7b31461028557806318160ddd146102b557806323b872dd146102d3578063248a9ca314610303576101f9565b8063010648ca146101fd57806301ffc9a714610219578063062d3bd71461024957806306fdde0314610267575b5f5ffd5b6102176004803603810190610212919061218f565b610657565b005b610233600480360381019061022e9190612255565b610782565b604051610240919061229a565b60405180910390f35b6102516107fb565b60405161025e91906122c2565b60405180910390f35b61026f61081f565b60405161027c919061234b565b60405180910390f35b61029f600480360381019061029a91906123f8565b6108bd565b6040516102ac919061229a565b60405180910390f35b6102bd6108df565b6040516102ca9190612445565b60405180910390f35b6102ed60048036038101906102e8919061245e565b6108f6565b6040516102fa919061229a565b60405180910390f35b61031d600480360381019061031891906124ae565b610924565b60405161032a91906122c2565b60405180910390f35b61034d600480360381019061034891906124d9565b61094e565b005b610369600480360381019061036491906124ae565b6109fe565b60405161037893929190612504565b60405180910390f35b61039b60048036038101906103969190612540565b610aaa565b005b6103a5610acc565b6040516103b29190612599565b60405180910390f35b6103c3610ad4565b6040516103d091906122c2565b60405180910390f35b6103f360048036038101906103ee919061245e565b610af8565b005b61040f600480360381019061040a9190612540565b610c06565b005b610419610c81565b005b610435600480360381019061043091906123f8565b610cb6565b005b610451600480360381019061044c91906126da565b610d37565b005b61046d60048036038101906104689190612789565b610fcc565b60405161047a91906122c2565b60405180910390f35b61048b610fec565b604051610498919061229a565b60405180910390f35b6104bb60048036038101906104b691906124d9565b61100e565b6040516104c89190612445565b60405180910390f35b6104d9611061565b005b6104f560048036038101906104f09190612540565b611096565b604051610502919061229a565b60405180910390f35b610525600480360381019061052091906124ae565b611107565b005b61052f611169565b60405161053c91906122c2565b60405180910390f35b61054d61116f565b60405161055a919061234b565b60405180910390f35b61056b61120d565b60405161057891906122c2565b60405180910390f35b61059b600480360381019061059691906123f8565b611213565b6040516105a8919061229a565b60405180910390f35b6105b9611235565b6040516105c6919061280f565b60405180910390f35b6105d7611259565b6040516105e491906122c2565b60405180910390f35b61060760048036038101906106029190612540565b61127d565b005b610623600480360381019061061e9190612828565b61129f565b6040516106309190612445565b60405180910390f35b61064161132f565b60405161064e91906122c2565b60405180910390f35b5f5f1b61066381611353565b5f60025f8781526020019081526020015f2060010154036106a557600385908060018154018082558091505060019003905f5260205f20015f90919091909150555b604051806060016040528083815260200142815260200185858080601f0160208091040260200160405190810160405280939291908181526020018383808284375f81840152601f19601f8201169050808301925050505050505081525060025f8781526020019081526020015f205f820151815f015560208201518160010155604082015181600201908161073b9190612a5a565b50905050847fb4c22d60cd550a815744f04e3ff5278bf19684565ee00e2b084041b6024bd6f685858560405161077393929190612b55565b60405180910390a25050505050565b5f7f7965db0b000000000000000000000000000000000000000000000000000000007bffffffffffffffffffffffffffffffffffffffffffffffffffffffff1916827bffffffffffffffffffffffffffffffffffffffffffffffffffffffff191614806107f457506107f382611367565b5b9050919050565b7f442a94f1a1fac79af32856af2a64f63648cfa2ef3b98610a5bb7cbec4cee698581565b60605f61082a6113d0565b905080600301805461083b90612893565b80601f016020809104026020016040519081016040528092919081815260200182805461086790612893565b80156108b25780601f10610889576101008083540402835291602001916108b2565b820191905f5260205f20905b81548152906001019060200180831161089557829003601f168201915b505050505091505090565b5f5f6108c76113f7565b90506108d48185856113fe565b600191505092915050565b5f5f6108e96113d0565b9050806002015491505090565b5f5f6109006113f7565b905061090d858285611410565b6109188585856114a3565b60019150509392505050565b5f5f61092e611593565b9050805f015f8481526020019081526020015f2060010154915050919050565b7f442a94f1a1fac79af32856af2a64f63648cfa2ef3b98610a5bb7cbec4cee698561097881611353565b815f5f6101000a81548173ffffffffffffffffffffffffffffffffffffffff021916908373ffffffffffffffffffffffffffffffffffffffff1602179055508173ffffffffffffffffffffffffffffffffffffffff167f98747757e5f0cf8ed88f5be95bf1fa9539ff10e55b2db045066f0bd3479052dc60405160405180910390a25050565b6002602052805f5260405f205f91509050805f015490806001015490806002018054610a2990612893565b80601f0160208091040260200160405190810160405280929190818152602001828054610a5590612893565b8015610aa05780601f10610a7757610100808354040283529160200191610aa0565b820191905f5260205f20905b815481529060010190602001808311610a8357829003601f168201915b5050505050905083565b610ab382610924565b610abc81611353565b610ac683836115ba565b50505050565b5f6012905090565b7f0acf805600123ef007091da3b3ffb39474074c656c127aa68cb0ffec232a8ff881565b7f0acf805600123ef007091da3b3ffb39474074c656c127aa68cb0ffec232a8ff8610b2281611353565b5f73ffffffffffffffffffffffffffffffffffffffff168373ffffffffffffffffffffffffffffffffffffffff1603610b90576040517f08c379a0000000000000000000000000000000000000000000000000000000008152600401610b8790612bf5565b60405180910390fd5b610b9b8484846114a3565b8273ffffffffffffffffffffffffffffffffffffffff168473ffffffffffffffffffffffffffffffffffffffff167f7b3ce50c216d2ccf9919c6b9f1bfb33f0350a33010f188750b4af38e0044813884604051610bf89190612445565b60405180910390a350505050565b610c0e6113f7565b73ffffffffffffffffffffffffffffffffffffffff168173ffffffffffffffffffffffffffffffffffffffff1614610c72576040517f6697b23200000000000000000000000000000000000000000000000000000000815260040160405180910390fd5b610c7c82826116b2565b505050565b7f65d7a28e3265b37a6474929f336521b332c1681b933f6cb9f3376673440d862a610cab81611353565b610cb36117aa565b50565b7f9f2df0fed2c77648de5860a4cc508cd0818c85b8b8a1ab4ceeef8d981c8956a6610ce081611353565b610ce983611818565b610d28576040517f08c379a0000000000000000000000000000000000000000000000000000000008152600401610d1f90612c83565b60405180910390fd5b610d328383611919565b505050565b5f610d40611998565b90505f815f0160089054906101000a900460ff161590505f825f015f9054906101000a900467ffffffffffffffff1690505f5f8267ffffffffffffffff16148015610d885750825b90505f60018367ffffffffffffffff16148015610dbb57505f3073ffffffffffffffffffffffffffffffffffffffff163b145b905081158015610dc9575080155b15610e00576040517ff92ee8a900000000000000000000000000000000000000000000000000000000815260040160405180910390fd5b6001855f015f6101000a81548167ffffffffffffffff021916908367ffffffffffffffff1602179055508315610e4d576001855f0160086101000a81548160ff0219169083151502179055505b610e578a8a6119ab565b610e5f6119c1565b610e676119cb565b875f5f6101000a81548173ffffffffffffffffffffffffffffffffffffffff021916908373ffffffffffffffffffffffffffffffffffffffff16021790555086600181905550610eb95f5f1b876115ba565b50610ee47f9f2df0fed2c77648de5860a4cc508cd0818c85b8b8a1ab4ceeef8d981c8956a6876115ba565b50610f0f7f65d7a28e3265b37a6474929f336521b332c1681b933f6cb9f3376673440d862a876115ba565b50610f3a7f442a94f1a1fac79af32856af2a64f63648cfa2ef3b98610a5bb7cbec4cee6985876115ba565b50610f657f0acf805600123ef007091da3b3ffb39474074c656c127aa68cb0ffec232a8ff8876115ba565b508315610fc0575f855f0160086101000a81548160ff0219169083151502179055507fc7f505b2f371ae2175ee4913f4499e1f2633a7b5936321eed1cdaeb6115181d26001604051610fb79190612ced565b60405180910390a15b50505050505050505050565b60038181548110610fdb575f80fd5b905f5260205f20015f915090505481565b5f5f610ff66119d5565b9050805f015f9054906101000a900460ff1691505090565b5f5f6110186113d0565b9050805f015f8473ffffffffffffffffffffffffffffffffffffffff1673ffffffffffffffffffffffffffffffffffffffff1681526020019081526020015f2054915050919050565b7f65d7a28e3265b37a6474929f336521b332c1681b933f6cb9f3376673440d862a61108b81611353565b6110936119fc565b50565b5f5f6110a0611593565b9050805f015f8581526020019081526020015f205f015f8473ffffffffffffffffffffffffffffffffffffffff1673ffffffffffffffffffffffffffffffffffffffff1681526020019081526020015f205f9054906101000a900460ff1691505092915050565b7f442a94f1a1fac79af32856af2a64f63648cfa2ef3b98610a5bb7cbec4cee698561113181611353565b81600181905550817fb46833b84fb286b2cfd94a0e313e0c45851c95ced55e0ab47445d13a1cfd30b860405160405180910390a25050565b60015481565b60605f61117a6113d0565b905080600401805461118b90612893565b80601f01602080910402602001604051908101604052809291908181526020018280546111b790612893565b80156112025780601f106111d957610100808354040283529160200191611202565b820191905f5260205f20905b8154815290600101906020018083116111e557829003601f168201915b505050505091505090565b5f5f1b81565b5f5f61121d6113f7565b905061122a8185856114a3565b600191505092915050565b5f5f9054906101000a900473ffffffffffffffffffffffffffffffffffffffff1681565b7f9f2df0fed2c77648de5860a4cc508cd0818c85b8b8a1ab4ceeef8d981c8956a681565b61128682610924565b61128f81611353565b61129983836116b2565b50505050565b5f5f6112a96113d0565b9050806001015f8573ffffffffffffffffffffffffffffffffffffffff1673ffffffffffffffffffffffffffffffffffffffff1681526020019081526020015f205f8473ffffffffffffffffffffffffffffffffffffffff1673ffffffffffffffffffffffffffffffffffffffff1681526020019081526020015f205491505092915050565b7f65d7a28e3265b37a6474929f336521b332c1681b933f6cb9f3376673440d862a81565b6113648161135f6113f7565b611a6b565b50565b5f7f01ffc9a7000000000000000000000000000000000000000000000000000000007bffffffffffffffffffffffffffffffffffffffffffffffffffffffff1916827bffffffffffffffffffffffffffffffffffffffffffffffffffffffff1916149050919050565b5f7f52c63247e1f47db19d5ce0460030c497f067ca4cebf71ba98eeadabe20bace00905090565b5f33905090565b61140b8383836001611abc565b505050565b5f61141b848461129f565b90507fffffffffffffffffffffffffffffffffffffffffffffffffffffffffffffffff81101561149d578181101561148e578281836040517ffb8f41b200000000000000000000000000000000000000000000000000000000815260040161148593929190612d15565b60405180910390fd5b61149c84848484035f611abc565b5b50505050565b5f73ffffffffffffffffffffffffffffffffffffffff168373ffffffffffffffffffffffffffffffffffffffff1603611513575f6040517f96c6fd1e00000000000000000000000000000000000000000000000000000000815260040161150a9190612d4a565b60405180910390fd5b5f73ffffffffffffffffffffffffffffffffffffffff168273ffffffffffffffffffffffffffffffffffffffff1603611583575f6040517fec442f0500000000000000000000000000000000000000000000000000000000815260040161157a9190612d4a565b60405180910390fd5b61158e838383611c99565b505050565b5f7f02dd7bc7dec4dceedda775e58dd541e08a116c6c53815c0bd028192f7b626800905090565b5f5f6115c4611593565b90506115d08484611096565b6116a7576001815f015f8681526020019081526020015f205f015f8573ffffffffffffffffffffffffffffffffffffffff1673ffffffffffffffffffffffffffffffffffffffff1681526020019081526020015f205f6101000a81548160ff0219169083151502179055506116436113f7565b73ffffffffffffffffffffffffffffffffffffffff168373ffffffffffffffffffffffffffffffffffffffff16857f2f8788117e7eff1d82e926ec794901d17c78024a50270940304540a733656f0d60405160405180910390a460019150506116ac565b5f9150505b92915050565b5f5f6116bc611593565b90506116c88484611096565b1561179f575f815f015f8681526020019081526020015f205f015f8573ffffffffffffffffffffffffffffffffffffffff1673ffffffffffffffffffffffffffffffffffffffff1681526020019081526020015f205f6101000a81548160ff02191690831515021790555061173b6113f7565b73ffffffffffffffffffffffffffffffffffffffff168373ffffffffffffffffffffffffffffffffffffffff16857ff6391f5c32d9c69d2a47ea670b442974b53935d1edc7fd64eb21e047a839171b60405160405180910390a460019150506117a4565b5f9150505b92915050565b6117b2611d5f565b5f6117bb6119d5565b90505f815f015f6101000a81548160ff0219169083151502179055507f5db9ee0a495bf2e6ff9c91a7834c1ba4fdd244a5e8aa4e537bd38aeae4b073aa6118006113f7565b60405161180d9190612d4a565b60405180910390a150565b5f5f73ffffffffffffffffffffffffffffffffffffffff165f5f9054906101000a900473ffffffffffffffffffffffffffffffffffffffff1673ffffffffffffffffffffffffffffffffffffffff16036118755760019050611914565b5f5f9054906101000a900473ffffffffffffffffffffffffffffffffffffffff1673ffffffffffffffffffffffffffffffffffffffff1663c07a95db836001546040518363ffffffff1660e01b81526004016118d2929190612d63565b602060405180830381865afa1580156118ed573d5f5f3e3d5ffd5b505050506040513d601f19601f820116820180604052508101906119119190612db4565b90505b919050565b5f73ffffffffffffffffffffffffffffffffffffffff168273ffffffffffffffffffffffffffffffffffffffff1603611989575f6040517fec442f050000000000000000000000000000000000000000000000000000000081526004016119809190612d4a565b60405180910390fd5b6119945f8383611c99565b5050565b5f5f6119a2611d9f565b90508091505090565b6119b3611dc8565b6119bd8282611e08565b5050565b6119c9611dc8565b565b6119d3611dc8565b565b5f7fcd5ed15c6e187e77e9aee88184c21f4f2182ab5827cb3b7e07fbedcd63f03300905090565b611a04611e44565b5f611a0d6119d5565b90506001815f015f6101000a81548160ff0219169083151502179055507f62e78cea01bee320cd4e420270b5ea74000d11b0c9f74754ebdbfc544b05a258611a536113f7565b604051611a609190612d4a565b60405180910390a150565b611a758282611096565b611ab85780826040517fe2517d3f000000000000000000000000000000000000000000000000000000008152600401611aaf929190612d63565b60405180910390fd5b5050565b5f611ac56113d0565b90505f73ffffffffffffffffffffffffffffffffffffffff168573ffffffffffffffffffffffffffffffffffffffff1603611b37575f6040517fe602df05000000000000000000000000000000000000000000000000000000008152600401611b2e9190612d4a565b60405180910390fd5b5f73ffffffffffffffffffffffffffffffffffffffff168473ffffffffffffffffffffffffffffffffffffffff1603611ba7575f6040517f94280d62000000000000000000000000000000000000000000000000000000008152600401611b9e9190612d4a565b60405180910390fd5b82816001015f8773ffffffffffffffffffffffffffffffffffffffff1673ffffffffffffffffffffffffffffffffffffffff1681526020019081526020015f205f8673ffffffffffffffffffffffffffffffffffffffff1673ffffffffffffffffffffffffffffffffffffffff1681526020019081526020015f20819055508115611c92578373ffffffffffffffffffffffffffffffffffffffff168573ffffffffffffffffffffffffffffffffffffffff167f8c5be1e5ebec7d5bd14f71427d1e84f3dd0314c0f7b2291e5b200ac8c7c3b92585604051611c899190612445565b60405180910390a35b5050505050565b611ca4838383611e85565b5f73ffffffffffffffffffffffffffffffffffffffff168373ffffffffffffffffffffffffffffffffffffffff1614158015611d0c57505f73ffffffffffffffffffffffffffffffffffffffff168273ffffffffffffffffffffffffffffffffffffffff1614155b15611d5a57611d1a82611818565b611d59576040517f08c379a0000000000000000000000000000000000000000000000000000000008152600401611d5090612c83565b60405180910390fd5b5b505050565b611d67610fec565b611d9d576040517f8dfc202b00000000000000000000000000000000000000000000000000000000815260040160405180910390fd5b565b5f7ff0c57e16840df040f15088dc2f81fe391c3923bec73e23a9662efc9c229c6a005f1b905090565b611dd0611e9d565b611e06576040517fd7e6bcf800000000000000000000000000000000000000000000000000000000815260040160405180910390fd5b565b611e10611dc8565b5f611e196113d0565b905082816003019081611e2c9190612a5a565b5081816004019081611e3e9190612a5a565b50505050565b611e4c610fec565b15611e83576040517fd93c066500000000000000000000000000000000000000000000000000000000815260040160405180910390fd5b565b611e8d611e44565b611e98838383611ebb565b505050565b5f611ea6611998565b5f0160089054906101000a900460ff16905090565b5f611ec46113d0565b90505f73ffffffffffffffffffffffffffffffffffffffff168473ffffffffffffffffffffffffffffffffffffffff1603611f185781816002015f828254611f0c9190612e0c565b92505081905550611fea565b5f815f015f8673ffffffffffffffffffffffffffffffffffffffff1673ffffffffffffffffffffffffffffffffffffffff1681526020019081526020015f2054905082811015611fa3578481846040517fe450d38c000000000000000000000000000000000000000000000000000000008152600401611f9a93929190612d15565b60405180910390fd5b828103825f015f8773ffffffffffffffffffffffffffffffffffffffff1673ffffffffffffffffffffffffffffffffffffffff1681526020019081526020015f2081905550505b5f73ffffffffffffffffffffffffffffffffffffffff168373ffffffffffffffffffffffffffffffffffffffff16036120335781816002015f828254039250508190555061207f565b81815f015f8573ffffffffffffffffffffffffffffffffffffffff1673ffffffffffffffffffffffffffffffffffffffff1681526020019081526020015f205f82825401925050819055505b8273ffffffffffffffffffffffffffffffffffffffff168473ffffffffffffffffffffffffffffffffffffffff167fddf252ad1be2c89b69c2b068fc378daa952ba7f163c4a11628f55a4df523b3ef846040516120dc9190612445565b60405180910390a350505050565b5f604051905090565b5f5ffd5b5f5ffd5b5f819050919050565b61210d816120fb565b8114612117575f5ffd5b50565b5f8135905061212881612104565b92915050565b5f5ffd5b5f5ffd5b5f5ffd5b5f5f83601f84011261214f5761214e61212e565b5b8235905067ffffffffffffffff81111561216c5761216b612132565b5b60208301915083600182028301111561218857612187612136565b5b9250929050565b5f5f5f5f606085870312156121a7576121a66120f3565b5b5f6121b48782880161211a565b945050602085013567ffffffffffffffff8111156121d5576121d46120f7565b5b6121e18782880161213a565b935093505060406121f48782880161211a565b91505092959194509250565b5f7fffffffff0000000000000000000000000000000000000000000000000000000082169050919050565b61223481612200565b811461223e575f5ffd5b50565b5f8135905061224f8161222b565b92915050565b5f6020828403121561226a576122696120f3565b5b5f61227784828501612241565b91505092915050565b5f8115159050919050565b61229481612280565b82525050565b5f6020820190506122ad5f83018461228b565b92915050565b6122bc816120fb565b82525050565b5f6020820190506122d55f8301846122b3565b92915050565b5f81519050919050565b5f82825260208201905092915050565b8281835e5f83830152505050565b5f601f19601f8301169050919050565b5f61231d826122db565b61232781856122e5565b93506123378185602086016122f5565b61234081612303565b840191505092915050565b5f6020820190508181035f8301526123638184612313565b905092915050565b5f73ffffffffffffffffffffffffffffffffffffffff82169050919050565b5f6123948261236b565b9050919050565b6123a48161238a565b81146123ae575f5ffd5b50565b5f813590506123bf8161239b565b92915050565b5f819050919050565b6123d7816123c5565b81146123e1575f5ffd5b50565b5f813590506123f2816123ce565b92915050565b5f5f6040838503121561240e5761240d6120f3565b5b5f61241b858286016123b1565b925050602061242c858286016123e4565b9150509250929050565b61243f816123c5565b82525050565b5f6020820190506124585f830184612436565b92915050565b5f5f5f60608486031215612475576124746120f3565b5b5f612482868287016123b1565b9350506020612493868287016123b1565b92505060406124a4868287016123e4565b9150509250925092565b5f602082840312156124c3576124c26120f3565b5b5f6124d08482850161211a565b91505092915050565b5f602082840312156124ee576124ed6120f3565b5b5f6124fb848285016123b1565b91505092915050565b5f6060820190506125175f8301866122b3565b6125246020830185612436565b81810360408301526125368184612313565b9050949350505050565b5f5f60408385031215612556576125556120f3565b5b5f6125638582860161211a565b9250506020612574858286016123b1565b9150509250929050565b5f60ff82169050919050565b6125938161257e565b82525050565b5f6020820190506125ac5f83018461258a565b92915050565b5f5ffd5b7f4e487b71000000000000000000000000000000000000000000000000000000005f52604160045260245ffd5b6125ec82612303565b810181811067ffffffffffffffff8211171561260b5761260a6125b6565b5b80604052505050565b5f61261d6120ea565b905061262982826125e3565b919050565b5f67ffffffffffffffff821115612648576126476125b6565b5b61265182612303565b9050602081019050919050565b828183375f83830152505050565b5f61267e6126798461262e565b612614565b90508281526020810184848401111561269a576126996125b2565b5b6126a584828561265e565b509392505050565b5f82601f8301126126c1576126c061212e565b5b81356126d184826020860161266c565b91505092915050565b5f5f5f5f5f60a086880312156126f3576126f26120f3565b5b5f86013567ffffffffffffffff8111156127105761270f6120f7565b5b61271c888289016126ad565b955050602086013567ffffffffffffffff81111561273d5761273c6120f7565b5b612749888289016126ad565b945050604061275a888289016123b1565b935050606061276b8882890161211a565b925050608061277c888289016123b1565b9150509295509295909350565b5f6020828403121561279e5761279d6120f3565b5b5f6127ab848285016123e4565b91505092915050565b5f819050919050565b5f6127d76127d26127cd8461236b565b6127b4565b61236b565b9050919050565b5f6127e8826127bd565b9050919050565b5f6127f9826127de565b9050919050565b612809816127ef565b82525050565b5f6020820190506128225f830184612800565b92915050565b5f5f6040838503121561283e5761283d6120f3565b5b5f61284b858286016123b1565b925050602061285c858286016123b1565b9150509250929050565b7f4e487b71000000000000000000000000000000000000000000000000000000005f52602260045260245ffd5b5f60028204905060018216806128aa57607f821691505b6020821081036128bd576128bc612866565b5b50919050565b5f819050815f5260205f209050919050565b5f6020601f8301049050919050565b5f82821b905092915050565b5f6008830261291f7fffffffffffffffffffffffffffffffffffffffffffffffffffffffffffffffff826128e4565b61292986836128e4565b95508019841693508086168417925050509392505050565b5f61295b612956612951846123c5565b6127b4565b6123c5565b9050919050565b5f819050919050565b61297483612941565b61298861298082612962565b8484546128f0565b825550505050565b5f5f905090565b61299f612990565b6129aa81848461296b565b505050565b5b818110156129cd576129c25f82612997565b6001810190506129b0565b5050565b601f821115612a12576129e3816128c3565b6129ec846128d5565b810160208510156129fb578190505b612a0f612a07856128d5565b8301826129af565b50505b505050565b5f82821c905092915050565b5f612a325f1984600802612a17565b1980831691505092915050565b5f612a4a8383612a23565b9150826002028217905092915050565b612a63826122db565b67ffffffffffffffff811115612a7c57612a7b6125b6565b5b612a868254612893565b612a918282856129d1565b5f60209050601f831160018114612ac2575f8415612ab0578287015190505b612aba8582612a3f565b865550612b21565b601f198416612ad0866128c3565b5f5b82811015612af757848901518255600182019150602085019450602081019050612ad2565b86831015612b145784890151612b10601f891682612a23565b8355505b6001600288020188555050505b505050505050565b5f612b3483856122e5565b9350612b4183858461265e565b612b4a83612303565b840190509392505050565b5f6040820190508181035f830152612b6e818587612b29565b9050612b7d60208301846122b3565b949350505050565b7f525741546f6b656e3a205472616e7366657220746f207a65726f2061646472655f8201527f7373000000000000000000000000000000000000000000000000000000000000602082015250565b5f612bdf6022836122e5565b9150612bea82612b85565b604082019050919050565b5f6020820190508181035f830152612c0c81612bd3565b9050919050565b7f525741546f6b656e3a20526563697069656e74206e6f7420636f6d706c69616e5f8201527f7400000000000000000000000000000000000000000000000000000000000000602082015250565b5f612c6d6021836122e5565b9150612c7882612c13565b604082019050919050565b5f6020820190508181035f830152612c9a81612c61565b9050919050565b5f819050919050565b5f67ffffffffffffffff82169050919050565b5f612cd7612cd2612ccd84612ca1565b6127b4565b612caa565b9050919050565b612ce781612cbd565b82525050565b5f602082019050612d005f830184612cde565b92915050565b612d0f8161238a565b82525050565b5f606082019050612d285f830186612d06565b612d356020830185612436565b612d426040830184612436565b949350505050565b5f602082019050612d5d5f830184612d06565b92915050565b5f604082019050612d765f830185612d06565b612d8360208301846122b3565b9392505050565b612d9381612280565b8114612d9d575f5ffd5b50565b5f81519050612dae81612d8a565b92915050565b5f60208284031215612dc957612dc86120f3565b5b5f612dd684828501612da0565b91505092915050565b7f4e487b71000000000000000000000000000000000000000000000000000000005f52601160045260245ffd5b5f612e16826123c5565b9150612e21836123c5565b9250828201905080821115612e3957612e38612ddf565b5b9291505056fea2646970667358221220c2f12404cdac61ab77ea7852a35f26e378f241f80b483b75359af2dc2dd92a7264736f6c634300081e0033","linkReferences":{}},"methodIdentifiers":{"COMPLIANCE_ROLE()":"062d3bd7","DEFAULT_ADMIN_ROLE()":"a217fddf","MINTER_ROLE()":"d5391393","PAUSER_ROLE()":"e63ab1e9","RECOVERY_ROLE()":"31993a1c","allowance(address,address)":"dd62ed3e","approve(address,uint256)":"095ea7b3","balanceOf(address)":"70a08231","complianceRegistry()":"cac89c5c","complianceRuleId()":"93b4d240","decimals()":"313ce567","docNames(uint256)":"5a9d13a9","documents(bytes32)":"2b2805db","forceTransfer(address,address,uint256)":"33bebb77","getRoleAdmin(bytes32)":"248a9ca3","grantRole(bytes32,address)":"2f2ff15d","hasRole(bytes32,address)":"91d14854","initialize(string,string,address,bytes32,address)":"43561af6","mint(address,uint256)":"40c10f19","name()":"06fdde03","pause()":"8456cb59","paused()":"5c975abb","renounceRole(bytes32,address)":"36568abe","revokeRole(bytes32,address)":"d547741f","setComplianceRegistry(address)":"24ccbf7f","setComplianceRuleId(bytes32)":"921b740c","setDocument(bytes32,string,bytes32)":"010648ca","supportsInterface(bytes4)":"01ffc9a7","symbol()":"95d89b41","totalSupply()":"18160ddd","transfer(address,uint256)":"a9059cbb","transferFrom(address,address,uint256)":"23b872dd","unpause()":"3f4ba83a"},"id":42}